:10080000120AD5120B0B8F33E533B4010CE53470AB
:10081000047F0180027F008F34E533B40207E4F5E2
:1008200030F531F532E53175F00A84FD7C007F0149
:10083000120B02E53175F00A84E5F0FD7C007F02C1
:10084000120B027D0B7C007F03120B02E53075F06A
:100850000A84FD7C007F04120B02E53075F00A84E7
:10086000E5F0FD7C007F05120B027D0B7C007F060E
:10087000120B02E53275F00A84FD7C007F07120B33
:1008800002E53275F00A84E5F0FD7C007F08120B6A
:040890000202080355
:100A5100E53460230532E532C39464401AE4F5328B
:100A61000530E530943C4005E4F5300531E531C30E
:080A7100943C4003E4F531223E
:03000B0002089454
:10089400C0E0C0F0C083C082C0D075D000C000C02A
:0D08A40001C002C003C004C005C006C007AB
:1008B100758A18758CFC052BE52B7002052AC394EB
:1008C1000AE52A94004009752A00752B00120A18BE
:1008D100052DE52D7002052CC39402E52C940040F2
:1008E10009752C00752D00120A9D052FE52F700248
:1008F100052EC3940AE52E94004009752E00752F2C
:0409010000120A5185
:10090500D007D006D005D004D003D002D001D00046
:0B091500D0D0D082D083D0F0D0E032F0
:050B0B00E4AF37F537EF
:010B100022C2
:100AEC00E4FF20B1010F20B0027F0220B2027F038D
:050AFC0020B3027F049D
:010B010022D1
:100A1800853536120AEC8F35E536B40107E53570B1
:100A280003753701E536B40207E5357003753702FB
:100A3800E536B40307E5357003753703E536B404C6
:080A480007E535700375370462
:010A50002283
:100ABA001812003F0006005B004F0066006D007DC3
:0A0ACA000007007F006F00000040ED
:090B0200AE0574092FF8A60622C5
:1009AC00E4F580EE705BEF14B4080050549009C766
:1009BC0075F003A4C58325F0C583730209DF020912
:1009CC00E30209E70209EB0209EF0209F70209FF4A
:1009DC00020A07D2A4800ED2A48012D2A48016D20E
:1009EC00A4801AC2A4D2A3D2A28016C2A4D2A3C23B
:1009FC00A2800EC2A4C2A3D2A28006C2A4C2A3C269
:0C0A0C00A2ED25E02412F808E6F5802297
:100A9D00AF087E0074092508F8E6FD7C001209AC4C
:0C0AAD000508E508C39409400375080122
:010AB900221A
:100AD5005389F0438901C28DD28C758CFC758A18B7
:070AE500D2A9D2AFC2B92271
:100A7900E4FDFCC3ED9FEE6480F8EC6480985013AC
:0C0A890075380275390FD539FDD538FAE3
:070A95000DBD00010C80E023
:010A9C002237
:03000000020920D2
:0C092000787FE4F6D8FD75813902096784
:10092C00020800E493A3F8E493A34003F68001F2D9
:10093C0008DFF48029E493A3F85407240CC8C333CC
:10094C00C4540F4420C8834004F456800146F6DF9B
:10095C00E4800B0102040810204080900ABAE47E67
:10096C00019360BCA3FF543F30E509541FFEE49390
:10097C00A360010ECF54C025E060A840B8E493A357
:10098C00FAE493A3F8E493A3C8C582C8CAC583CA82
:10099C00F0A3C8C582C8CAC583CADFE9DEE780BE3A
:010AD4000021
:00000001FF
