:100B0E0068656C6C6F005772697465204F4B0020DE
:100B1E00202020202020200052656164204F4B00B1
:080B2E002020202020202000DF
:10080000120C0E7BFF7A0B790E7D017F01120B5AC1
:100810001209768F24E524B401150523E52370021F
:100820000522750C05FBAA227D017F01120BDBE579
:1008300024B4021DE523152370021522750C05ABA7
:1008400023AA227D017F01120BDB7F057E00120BA4
:1008500036E5246403703DAD23FF120B7D7F057EDA
:1008600000120B36E522FD7F01120B7D7F057E0015
:10087000120B367BFF7A0B79147D017F02120B5A23
:100880007FE87E03120B367BFF7A0B791D7D017F9B
:1008900002120B5AE52464046003020810FF120AD6
:1008A000B57522008F237F01120AB5EFFEEE4222BA
:1008B000750C05AB23AA227D017F01120BDB7BFFA8
:1008C0007A0B79267D017F02120B5A7FE87E031294
:1008D0000B367BFF7A0B792E7D017F02120B5A02B9
:0208E0000810FE
:100B3600E4FDFCC3ED9FEE6480F8EC6480985013EE
:0C0B4600750902750A0FD50AFDD509FAE1
:070B52000DBD00010C80E065
:010B59002279
:10097600E4F50820B1137F14FE120B3630B1FD7F6B
:10098600147E00120B3675080120B0147F147E0009
:10099600120B3630B0FD7F147E00120B367508023E
:1009A60020B2147F147E00120B3630B2FD7F147E07
:1009B60000120B3675080320B3147F147E00120B49
:1009C6003630B3FD7F147E00120B36750804AF086F
:0109D60022FE
:060C2200C2A58F80D2A7DD
:080C28007F027EEFDEFEDFFC1F
:010C300022A1
:0A0C4900C2A6120C22C2A7020C285A
:100B9F00CFCDCFCECCCE1209217C007D0A120921F8
:040BAF00ED2430FF02
:0A0BB300D2A6120C22C2A7020C28E1
:100BF800AE07BE0104ED148006BE0209ED243F4491
:060C080080FF120C4922DE
:100C0E007F38120C497F0C120C497F06120C497F5B
:040C1E0001020C497A
:0A0C5300AC03120BF8AF04020BB360
:060B5A008B088A09890ADC
:100B6000120BF8E4FDAB08AA09A90A8D827583006F
:0C0B70001208E2FF6006120BB30D80E9D2
:010B7C002256
:0C0A82007F0AEA24FFFDE434FFFC7E0044
:080A8E008E0D8F0E8C0F8D10F0
:100A96007F017E00E4FBEBC39510E50F6480F874DC
:0E0AA6008098500AAC0DAD0E12090F0B80E8BF
:010AB400221F
:040BDB008A0A8B0BEC
:100BDF00120BF8AA0CEAD39400400D120A82AC0A49
:080BEF00AD0B120B9F1A80ED03
:010BF70022DB
:1009D700120BF8C3EA64809480400B7F2B120BB391
:1009E7008A168B17800E7F2D120BB3C3E49BF51766
:1009F700E49AF516AA15EAD39400400D120A82ACC0
:090A070016AD17120B9F1A80EDC9
:010A100022C3
:040A11008A1A8B1B97
:100A1500120BF8AA1CEAD3940040297F10120A840D
:100A2500AC1AAD1BCFCDCFCECCCE120921EF540FD2
:100A3500FEC3940AEE5004243080022437FF120BC3
:040A4500B31A80D18F
:010A4900228A
:040A4A008A1F8B2054
:100A4E00120BF8AA21EAD394004028EA24FFFDE411
:100A5E0034FFFC7F027E00120A8EAC1FAD20CFCD7C
:100A6E00CFCECCCE120921EF54012430FF120BB39E
:030A7E001A80D209
:010A81002252
:090C6700D2A1D2A0C2A0C2A122B8
:070C7000C2A0D2A1D2A02214
:020AE500AD075B
:100AE700E4FB7E007480A803088006CEA2E713CE3D
:100AF70013D8F8FFEDF582EF558224FF92A0D2A11B
:060B0700C2A10BBB08DCDB
:010B0D0022C5
:100BBD00E4FFD2A0FED2A130A00DA806748008805B
:0D0BCD0002C313D8FC4207C2A10EBE08E807
:010BDA0022F8
:0A0C5D00EF24FF92A0D2A1C2A12251
:0B0C3100D2A0D2A1A2A0E433FFC2A118
:010C3C002295
:100B7D008F088D09120C677FA0120AE5120C31AF98
:100B8D0008120AE5120C31AF09120AE5120C3102F6
:020B9D000C70DA
:020AB5008F08A8
:100AB700120C677FA0120AE5120C31AF08120AE583
:100AC700120C31120C677FA1120AE5120C31120BBE
:0D0AD700BD8F097F01120C5D120C70AF097C
:010AE40022EF
:03000000020C3DB2
:0C0C3D00787FE4F6D8FD758125020800E0
:1008E200BB010CE58229F582E5833AF583E02250CB
:1008F20006E92582F8E622BBFE06E92582F8E22215
:0D090200E58229F582E5833AF583E493222E
:10090F00EF8DF0A4A8F0CF8CF0A428CE8DF0A42EFC
:02091F00FE22B6
:10092100BC000BBE0029EF8DF084FFADF022E4CCBA
:10093100F875F008EF2FFFEE33FEEC33FCEE9DEC83
:10094100984005FCEE9DFE0FD5F0E9E4CEFD22EDC9
:10095100F8F5F0EE8420D21CFEADF075F008EF2F13
:10096100FFED33FD4007985006D5F0F222C398FD04
:050971000FD5F0EA22A1
:00000001FF
