:1005780020202D20202D20200020203A20203A2045
:02058800200051
:10029A001205641205B71200037BFF7A0579787D8F
:1002AA00017F011204D97BFF7A0579817D017F02E2
:1002BA001204D9120181E511FB7A00750C027D0145
:1002CA007F0112051AE512FB7A00750C027D047F84
:1002DA000112051AE513FB7A00750C027D077F01EE
:1002EA0012051AE514FB7A00750C027D017F0212D1
:1002FA00051AE515FB7A00750C027D047F021205CA
:10030A001AE516FB7A00750C027D077F0212051AA0
:09031A007FE87E031204AE809A14
:100537005389F0438901D28CC28D758CFC758A185A
:07054700D2A9D2AFC2B92214
:1004AE00E4FDFC120537EF24FFFBEE34FFFAC3ED3B
:1004BE009BEA6480F8EC648098500FC28D758CFCBA
:0A04CE00758A670DBD00010C80DC8B
:0104D8002201
:0905990007111A0319130A3702B5
:0505B700C2B5C2B6222E
:0603230025F0FDEC3EFC9C
:10032900AB05AA04A907D2B5E4F51874017E00A8A3
:1003390018088005C333CE33CED8F9FFE9FDEF5D48
:1003490024FF92B4D2B6C2B60518E518B408DCE4A5
:10035900F51874017E00A818088005C333CE33CE82
:10036900D8F9FFEE5AFEEF5B4E24FF92B4D2B6C223
:0B037900B60518E518B408DAC2B5227A
:02038400A907C7
:10038600E4FD430101D2B5FB74017E00A803088099
:1003960005C333CE33CED8F9FFE9F582EF55822473
:1003A600FF92B4C2B6D2B60BBB08DDE4FBD2B6C22E
:1003B600B630B40D7401A803088002C333D8FC4DCF
:0903C600FD0BBB08E8C2B5AF0550
:0103CF00220B
:10000300E4FDFC7F8E120329E51175F00A8475F077
:1000130010A4FFAEF0E51175F00A84EF7F8C120394
:1000230023E51275F00A8475F010A4FFAEF0E51213
:1000330075F00A847C00EF7F88120323E51375F0C3
:100043000A8475F010A4FFAEF0E51375F00A847C02
:1000530000EF25F0FDEC3EFC7F86120329E51475C5
:10006300F00A8475F010A4FFAEF0E51475F00A846D
:100073007C00EF25F0FDEC3EFC7F84120329E5159F
:1000830075F00A8475F010A4FFAEF0E51575F00A5B
:10009300847C00EF25F0FDEC3EFC7F82120329E512
:1000A3001675F00A8475F010A4FFAEF0E51675F02E
:1000B3000A847C00EF25F0FDEC3EFC7F80120329CF
:1000C300E51775F00A8475F010A4FFAEF0E5177517
:1000D300F00A847C00EF25F0FDEC3EFC7F8A1203DE
:0A00E300297D807C007F8E02032936
:100181007F8C120384EFC4540F75F00AA4FEEF5460
:100191000F2EF5117F88120384EFC4540F75F00AF6
:1001A100A4FEEF540F2EF5127F86120384EFC45480
:1001B1000F75F00AA4FEEF540F2EF5137F8412037E
:1001C10084EFC4540F75F00AA4FEEF540F2EF514FA
:1001D1007F82120384EFC4540F75F00AA4FEEF541A
:1001E1000F2EF5157F80120384EFC4540F75F00AAA
:1001F100A4FEEF540F2EF5167F8A120384EFC45428
:0C0201000F75F00AA4FEEF540F2EF51745
:01020D0022CE
:06058A00C2A58F80D2A77C
:080590007F027EEFDEFEDFFCBE
:010598002240
:0A05A300C2A612058AC2A702059045
:100564007F381205A37F0C1205A37F061205A37F13
:04057400010205A3D8
:1004FC00CFCDCFCECCCE12012C7C007D0A12012C9C
:04050C00ED2430FFAB
:0A051000D2A612058AC2A7020590C8
:10054E00AE07BE0104ED148006BE0209ED243F4441
:06055E0080FF1205A3223C
:0A05AD00AC0312054EAF0402051066
:0604D9008B088A09890A64
:1004DF0012054EE4FDAB08AA09A90A8D82758300A7
:0C04EF001200EDFF60061205100D80E900
:0104FB0022DE
:0C047B007F0AEA24FFFDE434FFFC7E0051
:080487008E0D8F0E8C0F8D10FD
:10048F007F017E00E4FBEBC39510E50F6480F874E9
:0E049F008098500AAC0DAD0E12011A0B80E8C9
:0104AD00222C
:04051A008A0A8B0BB3
:10051E0012054EAA0CEAD39400400D12047BAC0ACD
:08052E00AD0B1204FC1A80ED74
:0105360022A2
:1003D00012054EC3EA64809480400B7F2B120510F7
:1003E0008A1E8B1F800E7F2D120510C3E49BF51F04
:1003F000E49AF51EAA1DEAD39400400D12047BACCA
:090400001EAD1F1204FC1A80ED70
:0104090022D0
:04040A008A228B2394
:10040E0012054EAA24EAD3940040297F1012047DCF
:10041E00AC22AD23CFCDCFCECCCE12012CEF540FCC
:10042E00FEC3940AEE5004243080022437FF1205D6
:04043E00101A80D13F
:010442002297
:040443008A278B2851
:1004470012054EAA29EAD394004028EA24FFFDE4C6
:1004570034FFFC7F027E00120487AC27AD28CFCD86
:10046700CFCECCCE12012CEF54012430FF12051051
:030477001A80D216
:01047A00225F
:0300000002020EEB
:0C020E00787FE4F6D8FD758129020255C6
:1000ED00BB010CE58229F582E5833AF583E02250C8
:1000FD0006E92582F8E622BBFE06E92582F8E22212
:0D010D00E58229F582E5833AF583E493222B
:10011A00EF8DF0A4A8F0CF8CF0A428CE8DF0A42EF9
:02012A00FE22B3
:10012C00BC000BBE0029EF8DF084FFADF022E4CCB7
:10013C00F875F008EF2FFFEE33FEEC33FCEE9DEC80
:10014C00984005FCEE9DFE0FD5F0E9E4CEFD22EDC6
:10015C00F8F5F0EE8420D21CFEADF075F008EF2F10
:10016C00FFED33FD4007985006D5F0F222C398FD01
:05017C000FD5F0EA229E
:10021A0002029AE493A3F8E493A34003F68001F25E
:10022A0008DFF48029E493A3F85407240CC8C333E5
:10023A00C4540F4420C8834004F456800146F6DFB4
:10024A00E4800B0102040810204080900599E47EA6
:10025A00019360BCA3FF543F30E509541FFEE493A9
:10026A00A360010ECF54C025E060A840B8E493A370
:10027A00FAE493A3F8E493A3C8C582C8CAC583CA9B
:10028A00F0A3C8C582C8CAC583CADFE9DEE780BE53
:0105A2000058
:00000001FF
