:1005750020202D20202D20200020203A20203A2048
:02058500200054
:10029A001205611200037BFF7A0579757D017F01E2
:1002AA001204D67BFF7A05797E7D017F021204D67D
:1002BA00120181E511FB7A00750C027D017F0112A2
:1002CA000517E512FB7A00750C027D047F01120501
:1002DA0017E513FB7A00750C027D077F01120517DB
:1002EA00E514FB7A00750C027D017F02120517E501
:1002FA0015FB7A00750C027D047F02120517E516BC
:10030A00FB7A00750C027D077F021205177FE87ED3
:06031A00031204AB809AFF
:100534005389F0438901D28CC28D758CFC758A185D
:07054400D2A9D2AFC2B92217
:1004AB00E4FDFC120534EF24FFFBEE34FFFAC3ED41
:1004BB009BEA6480F8EC648098500FC28D758CFCBD
:0A04CB00758A670DBD00010C80DC8E
:0104D5002204
:0905960007111A0319620A370269
:0505B400C2B5C2B62231
:0603200025F0FDEC3EFC9F
:10032600AB05AA04A907D2B5E4F51874017E00A8A6
:1003360018088005C333CE33CED8F9FFE9FDEF5D4B
:1003460024FF92B4D2B6C2B60518E518B408DCE4A8
:10035600F51874017E00A818088005C333CE33CE85
:10036600D8F9FFEE5AFEEF5B4E24FF92B4D2B6C226
:0B037600B60518E518B408DAC2B5227D
:02038100A907CA
:10038300E4FD430101D2B5FB74017E00A80308809C
:1003930005C333CE33CED8F9FFE9F582EF55822476
:1003A300FF92B4C2B6D2B60BBB08DDE4FBD2B6C231
:1003B300B630B40D7401A803088002C333D8FC4DD2
:0903C300FD0BBB08E8C2B5AF0553
:0103CC00220E
:10000300E4FDFC7F8E120326E51175F00A8475F07A
:1000130010A4FFAEF0E51175F00A84EF7F8C120394
:1000230020E51275F00A8475F010A4FFAEF0E51216
:1000330075F00A847C00EF7F88120320E51375F0C6
:100043000A8475F010A4FFAEF0E51375F00A847C02
:1000530000EF25F0FDEC3EFC7F86120326E51475C8
:10006300F00A8475F010A4FFAEF0E51475F00A846D
:100073007C00EF25F0FDEC3EFC7F84120326E515A2
:1000830075F00A8475F010A4FFAEF0E51575F00A5B
:10009300847C00EF25F0FDEC3EFC7F82120326E515
:1000A3001675F00A8475F010A4FFAEF0E51675F02E
:1000B3000A847C00EF25F0FDEC3EFC7F80120326D2
:1000C300E51775F00A8475F010A4FFAEF0E5177517
:1000D300F00A847C00EF25F0FDEC3EFC7F8A1203DE
:0A00E300267D807C007F8E0203263C
:100181007F8C120381EFC4540F75F00AA4FEEF5463
:100191000F2EF5117F88120381EFC4540F75F00AF9
:1001A100A4FEEF540F2EF5127F86120381EFC45483
:1001B1000F75F00AA4FEEF540F2EF5137F8412037E
:1001C10081EFC4540F75F00AA4FEEF540F2EF514FD
:1001D1007F82120381EFC4540F75F00AA4FEEF541D
:1001E1000F2EF5157F80120381EFC4540F75F00AAD
:1001F100A4FEEF540F2EF5167F8A120381EFC4542B
:0C0201000F75F00AA4FEEF540F2EF51745
:01020D0022CE
:06058700C2A58F80D2A77F
:08058D007F027EEFDEFEDFFCC1
:010595002243
:0A05A000C2A6120587C2A702058D4E
:100561007F381205A07F0C1205A07F061205A07F1F
:04057100010205A0DE
:1004F900CFCDCFCECCCE12012C7C007D0A12012C9F
:04050900ED2430FFAE
:0A050D00D2A6120587C2A702058DD1
:10054B00AE07BE0104ED148006BE0209ED243F4444
:06055B0080FF1205A02242
:0A05AA00AC0312054BAF0402050D6F
:0604D6008B088A09890A67
:1004DC0012054BE4FDAB08AA09A90A8D82758300AD
:0C04EC001200EDFF600612050D0D80E906
:0104F80022E1
:0C0478007F0AEA24FFFDE434FFFC7E0054
:080484008E0D8F0E8C0F8D1000
:10048C007F017E00E4FBEBC39510E50F6480F874EC
:0E049C008098500AAC0DAD0E12011A0B80E8CC
:0104AA00222F
:040517008A0A8B0BB6
:10051B0012054BAA0CEAD39400400D120478AC0AD6
:08052B00AD0B1204F91A80ED7A
:0105330022A5
:1003CD0012054BC3EA64809480400B7F2B12050D00
:1003DD008A1E8B1F800E7F2D12050DC3E49BF51F0A
:1003ED00E49AF51EAA1DEAD39400400D120478ACD0
:0903FD001EAD1F1204F91A80ED77
:0104060022D3
:040407008A228B2397
:10040B0012054BAA24EAD3940040297F1012047AD8
:10041B00AC22AD23CFCDCFCECCCE12012CEF540FCF
:10042B00FEC3940AEE5004243080022437FF1205D9
:04043B000D1A80D145
:01043F00229A
:040440008A278B2854
:1004440012054BAA29EAD394004028EA24FFFDE4CC
:1004540034FFFC7F027E00120484AC27AD28CFCD8C
:10046400CFCECCCE12012CEF54012430FF12050D57
:030474001A80D219
:010477002262
:0300000002020EEB
:0C020E00787FE4F6D8FD758129020255C6
:1000ED00BB010CE58229F582E5833AF583E02250C8
:1000FD0006E92582F8E622BBFE06E92582F8E22212
:0D010D00E58229F582E5833AF583E493222B
:10011A00EF8DF0A4A8F0CF8CF0A428CE8DF0A42EF9
:02012A00FE22B3
:10012C00BC000BBE0029EF8DF084FFADF022E4CCB7
:10013C00F875F008EF2FFFEE33FEEC33FCEE9DEC80
:10014C00984005FCEE9DFE0FD5F0E9E4CEFD22EDC6
:10015C00F8F5F0EE8420D21CFEADF075F008EF2F10
:10016C00FFED33FD4007985006D5F0F222C398FD01
:05017C000FD5F0EA229E
:10021A0002029AE493A3F8E493A34003F68001F25E
:10022A0008DFF48029E493A3F85407240CC8C333E5
:10023A00C4540F4420C8834004F456800146F6DFB4
:10024A00E4800B0102040810204080900596E47EA9
:10025A00019360BCA3FF543F30E509541FFEE493A9
:10026A00A360010ECF54C025E060A840B8E493A370
:10027A00FAE493A3F8E493A3C8C582C8CAC583CA9B
:10028A00F0A3C8C582C8CAC583CADFE9DEE780BE53
:01059F00005B
:00000001FF
