:100D350020202D20202D20200020203A20203A2080
:020D450020008C
:100A6400120D21120D781208007BFF7A0D79357D65
:100A7400017F01120C967BFF7A0D793E7D017F0286
:100A8400120C9612094BE511FB7A00750C027D01DC
:100A94007F01120CD7E512FB7A00750C027D047FEE
:100AA40001120CD7E513FB7A00750C027D077F0158
:100AB400120CD7E514FB7A00750C027D017F02123B
:100AC4000CD7E515FB7A00750C027D047F02120C2D
:100AD400D7E516FB7A00750C027D077F02120CD74E
:020AE40080A1EF
:040D5600022A00006D
:100CF4005389F0438901D28CC28D758CFC758A1896
:070D0400D2A9D2AFC2B9224F
:100C6C00E4F52AF52BC3E52B9FEE6480F8E52A64A6
:100C7C0080985015C28D758CFC758A67308DFD057A
:0A0C8C002BE52B70E0052A80DC2226
:090D5A0007111A0319130A3702EC
:050D7800C2B5C2B62265
:030AE60025F0FDFB
:100AE900AB07D2B5E4F5187E007401A81808800593
:100AF900C333CE33CED8F9FFEBF582EF558224FF0D
:100B090092B4D2B6C2B60518E518B408DAE4F518F5
:100B19007E007401A818088005C333CE33CED8F9F6
:100B2900FFEDFBEF5B24FF92B4D2B6C2B60518E520
:070B390018B408DCC2B5226C
:020B4000AD07FF
:100B4200E4F9430501D2B5FB7E007401A8030880D5
:100B520005C333CE33CED8F9FFEDF582EF558224AB
:100B6200FF92B4C2B6D2B60BBB08DDE4FBD2B6C26A
:100B7200B630B40DA8037401088002C333D8FC4216
:0B0B8200010BBB08E8C2B5C2B4AF0114
:010B8D002245
:10080000E4FD7F8E120AE9E51175F00A84C454F004
:10081000FFE51175F00A84EF7F8C120AE6E5127588
:10082000F00A84C454F0FFE51275F00A84EF7F8863
:10083000120AE6E51375F00A84C454F0FFE5137557
:10084000F00A84EF25F0FD7F86120AE9E51475F0C1
:100850000A84C454F0FFE51475F00A84EF25F0FD16
:100860007F84120AE9E51575F00A84C454F0FFE5A7
:100870001575F00A84EF25F0FD7F82120AE9E5166E
:1008800075F00A84C454F0FFE51675F00A84EF256C
:10089000F0FD7F80120AE9E51775F00A84C454F070
:1008A000FFE51775F00A84EF25F0FD7F8A120AE94B
:0708B0007D807F8E020AE942
:10094B007F8C120B40EFC4540F75F00AA4FEEF54CA
:10095B000F2EF5117F88120B40EFC4540F75F00A60
:10096B00A4FEEF540F2EF5127F86120B40EFC454EA
:10097B000F75F00AA4FEEF540F2EF5137F84120BA4
:10098B0040EFC4540F75F00AA4FEEF540F2EF5146C
:10099B007F82120B40EFC4540F75F00AA4FEEF5484
:1009AB000F2EF5157F80120B40EFC4540F75F00A14
:1009BB00A4FEEF540F2EF5167F8A120B40EFC45492
:0C09CB000F75F00AA4FEEF540F2EF51774
:0109D70022FD
:060D4700C2A58F80D2A7B7
:080D4D007F027EEFDEFEDFFCF9
:010D5500227B
:0A0D6400C2A6120D47C2A7020D4DF2
:100D21007F38120D647F0C120D647F06120D647FF3
:040D310001020D644A
:100CB900CFCDCFCECCCE1208F67C007D0A1208F635
:040CC900ED2430FFE7
:0A0CCD00D2A6120D47C2A7020D4D7A
:100D0B00AE07BE0104ED148006BE0209ED243F447C
:060D1B0080FF120D6422AE
:0A0D6E00AC03120D0BAF04020CCD14
:060C96008B088A09890A9F
:100C9C00120D0BE4FDAB08AA09A90A8D827583001D
:0C0CAC001208B7FF6006120CCD0D80E9A5
:010CB8002219
:0C0C39007F0AEA24FFFDE434FFFC7E008B
:080C45008E0D8F0E8C0F8D1037
:100C4D007F017E00E4FBEBC39510E50F6480F87423
:0E0C5D008098500AAC0DAD0E1208E40B80E832
:010C6B002266
:040CD7008A0A8B0BEF
:100CDB00120D0BAA0CEAD39400400D120C39AC0A7E
:080CEB00AD0B120CB91A80EDEB
:010CF30022DE
:100B8E00120D0BC3EA64809480400B7F2B120CCDA8
:100B9E008A1E8B1F800E7F2D120CCDC3E49BF51F7A
:100BAE00E49AF51EAA1DEAD39400400D120C39AC3E
:090BBE001EAD1F120CB91A80EDE6
:010BC700220B
:040BC8008A228B23CF
:100BCC00120D0BAA24EAD3940040297F10120C3B7F
:100BDC00AC22AD23CFCDCFCECCCE1208F6EF540F36
:100BEC00FEC3940AEE5004243080022437FF120C0A
:040BFC00CD1A80D1BD
:010C000022D1
:040C01008A278B288B
:100C0500120D0BAA29EAD394004028EA24FFFDE43B
:100C150034FFFC7F027E00120C45AC27AD28CFCDFA
:100C2500CFCECCCE1208F6EF54012430FF120CCDF6
:030C35001A80D250
:010C38002299
:030000000209D81A
:0C09D800787FE4F6D8FD75812B020A1F21
:1008B700BB010CE58229F582E5833AF583E02250F6
:1008C70006E92582F8E622BBFE06E92582F8E22240
:0D08D700E58229F582E5833AF583E493225A
:1008E400EF8DF0A4A8F0CF8CF0A428CE8DF0A42E28
:0208F400FE22E2
:1008F600BC000BBE0029EF8DF084FFADF022E4CCE6
:10090600F875F008EF2FFFEE33FEEC33FCEE9DECAE
:10091600984005FCEE9DFE0FD5F0E9E4CEFD22EDF4
:10092600F8F5F0EE8420D21CFEADF075F008EF2F3E
:10093600FFED33FD4007985006D5F0F222C398FD2F
:050946000FD5F0EA22CC
:1009E400020A64E493A3F8E493A34003F68001F2BB
:1009F40008DFF48029E493A3F85407240CC8C33314
:100A0400C4540F4420C8834004F456800146F6DFE2
:100A1400E4800B0102040810204080900D56E47E0F
:100A2400019360BCA3FF543F30E509541FFEE493D7
:100A3400A360010ECF54C025E060A840B8E493A39E
:100A4400FAE493A3F8E493A3C8C582C8CAC583CAC9
:100A5400F0A3C8C582C8CAC583CADFE9DEE780BE81
:010D6300008F
:00000001FF
