:1001D50049204C6F7665204368696E61210049208E
:0D01E5004C6F7665204E616E4875612100FB
:100198001202257BFF7A0179D57D017F0112017555
:0F01A8007BFF7A0179E37D017F0212017580FEF2
:06023900C2A58F80D2A7D0
:08023F007F027EEFDEFEDFFC12
:010247002294
:0A025400C2A6120239C2A702023F3F
:1001B700CFCDCFCECCCE1200427C007D0A120042BA
:0401C700ED2430FFF4
:0A01CB00D2A6120239C2A702023FB9
:10020F00AE07BE0104ED148006BE0209ED243F4483
:06021F0080FF12025422D0
:100225007F381202547F0C1202547F061202547F4B
:04023500010202546C
:0A025E00AC0312020FAF040201CB43
:060175008B228A2389247D
:10017B0012020FE4FDAB22AA23A9248D8275830002
:0C018B00120003FF60061201CB0D80E99A
:010197002245
:0C0142007F0AEA24FFFDE434FFFC7E008D
:08014E008E1E8F1F8C208D21F5
:100156007F017E00E4FBEBC39521E5206480F87403
:0E0166008098500AAC1EAD1F1200300B80E8CE
:010174002268
:0401F2008A118B12D1
:1001F60012020FAA13EAD39400400D120142AC1169
:08020600AD121201B71A80EDE0
:01020E0022CD
:1000970012020FC3EA64809480400B7F2B1201CBBE
:1000A7008A0D8B0E800E7F2D1201CBC3E49BF50EBC
:1000B700E49AF50DAA0CEAD39400400D120142AC64
:0900C7000DAD0E1201B71A80ED17
:0100D000220D
:0400D1008A168B17E9
:1000D50012020FAA18EAD3940040297F1012014496
:1000E500AC16AD17CFCDCFCECCCE120042EF540F0C
:1000F500FEC3940AEE5004243080022437FF120117
:04010500CB1A80D1C0
:0101090022D3
:04010A008A1B8B1CA5
:10010E0012020FAA1DEAD394004028EA24FFFDE450
:10011E0034FFFC7F027E0012014EAC1BAD1CCFCD16
:10012E00CFCECCCE120042EF54012430FF1201CBC1
:03013E001A80D252
:01014100229B
:03000000020248B1
:0C024800787FE4F6D8FD7581240201984F
:10000300BB010CE58229F582E5833AF583E02250B2
:1000130006E92582F8E622BBFE06E92582F8E222FC
:0D002300E58229F582E5833AF583E4932216
:10003000EF8DF0A4A8F0CF8CF0A428CE8DF0A42EE4
:02004000FE229E
:10004200BC000BBE0029EF8DF084FFADF022E4CCA2
:10005200F875F008EF2FFFEE33FEEC33FCEE9DEC6B
:10006200984005FCEE9DFE0FD5F0E9E4CEFD22EDB1
:10007200F8F5F0EE8420D21CFEADF075F008EF2FFB
:10008200FFED33FD4007985006D5F0F222C398FDEC
:050092000FD5F0EA2289
:00000001FF
