:1008F500120A2BE4F52BE52B7003752864E52BB460
:100905000103752832E52BB40203752819E52BB4CC
:100915000303E4F5281209578F29E529640170249A
:10092500052B532B03E52B7003752864E52BB401C8
:1009350003752832E52BB40203752819E52BB4039A
:1009450003E4F528E52BFD7C007F017E0012088C71
:0209550080C35D
:03000B000209B82F
:1009B800C0E0C0F0C0D0758AA4758CFF052AE52A6E
:1009C80075F0648485F02AE52AC395285004C290FE
:0B09D8008002D290D0D0D0F0D0E032EE
:100A2B005389F0438901C28DD28C758CFF758AA4D2
:070A3B00D2A9D2AFC2B9221B
:1009E300E4FDFCC3ED9FEE6480F8EC648098501343
:0C09F300752D02752E0FD52EFDD52DFAA6
:0709FF000DBD00010C80E0BA
:010A060022CD
:10095700E4F52C20B1137F14FE1209E330B1FD7FBB
:10096700147E001209E3752C0120B0147F147E0059
:100977001209E330B0FD7F147E001209E3752C02E3
:1009870020B2147F147E001209E330B2FD7F147E7B
:10099700001209E3752C0320B3147F147E0012099B
:1009A700E330B3FD7F147E001209E3752C04AF2CEE
:0109B700221D
:100A0700202008003F0006005B004F0066006D00D5
:100A17007D0007007F006F0077007C0039005E00D3
:030A2700790071E2
:10088C00EE705BEF14B4080050549008A475F0039C
:10089C00A4C58325F0C583730208BC0208C00208F6
:1008AC00C40208C80208CC0208D40208DC0208E41E
:1008BC00D2A4800ED2A48012D2A48016D2A4801A04
:1008CC00C2A4D2A3D2A28016C2A4D2A3C2A2800E6A
:1008DC00C2A4C2A3D2A28006C2A4C2A3C2A2ED2506
:0908EC00E02408F808E6F580227A
:03000000020800F3
:0C080000787FE4F6D8FD75812E020847D1
:10080C000208F5E493A3F8E493A34003F68001F205
:10081C0008DFF48029E493A3F85407240CC8C333ED
:10082C00C4540F4420C8834004F456800146F6DFBC
:10083C00E4800B0102040810204080900A07E47E3B
:10084C00019360BCA3FF543F30E509541FFEE493B1
:10085C00A360010ECF54C025E060A840B8E493A378
:10086C00FAE493A3F8E493A3C8C582C8CAC583CAA3
:10087C00F0A3C8C582C8CAC583CADFE9DEE780BE5B
:010A2A0000CB
:00000001FF
