:0C04BD00507373776F72643A004F4B006D
:0404DD000218000100
:1002AC0012049A7BFF7A0479BD7D017F011204064A
:1002BC001200038F1CE51C60F7D3940A5040E5191B
:1002CC009404E51894005028AE1AAF1B7C007D0AEC
:1002DC001201B98E1A8F1BE51C75F00A84E5F02506
:1002EC001BF51BE4351AF51A0519E51970020518EA
:1002FC00750C04AB1BAA1A7D017F02120467E51C66
:10030C00B40BADE51BB429A8E51AB409A37BFF7A9D
:0C031C000479C67D0E7F01120406809457
:0604AE00C2A58F80D2A759
:0804B4007F027EEFDEFEDFFC9B
:0104BC00221D
:0A04C900C2A61204AEC2A70204B4DA
:10044900CFCDCFCECCCE1201CB7C007D0A1201CB11
:04045900ED2430FF5F
:0A045D00D2A61204AEC2A70204B436
:10048400AE07BE0104ED148006BE0209ED243F440C
:0604940080FF1204C922E2
:10049A007F381204C97F0C1204C97F061204C97F6F
:0404AA00010204C97E
:0A04D300AC03120484AF0402045DC0
:060406008B088A09890A37
:10040C00120484E4FDAB08AA09A90A8D8275830045
:0C041C0012018CFF600612045D0D80E9E7
:0104280022B1
:0C03D3007F0AEA24FFFDE434FFFC7E00FA
:0803DF008E0D8F0E8C0F8D10A6
:1003E7007F017E00E4FBEBC39510E50F6480F87492
:0E03F7008098500AAC0DAD0E1201B90B80E8D3
:0104050022D4
:040467008A0A8B0B67
:10046B00120484AA0CEAD39400400D1203D3AC0AF5
:08047B00AD0B1204491A80EDDB
:010483002256
:10032800120484C3EA64809480400B7F2B12045D1E
:100338008A168B17800E7F2D12045DC3E49BF51778
:10034800E49AF516AA15EAD39400400D1203D3AC2B
:0903580016AD171204491A80EDDC
:010361002279
:040362008A1F8B2043
:10036600120484AA21EAD3940040297F101203D5EF
:10037600AC1FAD20CFCDCFCECCCE1201CBEF540FDC
:10038600FEC3940AEE5004243080022437FF120480
:040396005D1A80D19B
:01039A002240
:04039B008A248B2500
:10039F00120484AA26EAD394004028EA24FFFDE43D
:1003AF0034FFFC7F027E001203DFAC24AD25CFCDDE
:1003BF00CFCECCCE1201CBEF54012430FF12045D0F
:0303CF001A80D2BF
:0103D2002208
:10042900E4FDFCC3ED9FEE6480F8EC648098500F06
:0F043900790B7BBEDBFED9FC0DBD00010C80E40E
:010448002291
:10000300E4F5087590FFC2932097137F14FE120442
:10001300293097FD7F147E0012042975080120966C
:10002300147F147E001204293096FD7F147E001283
:1000330004297508052095147F147E0012042930C5
:1000430095FD7F147E001204297508092094147FFE
:10005300147E001204293094FD7F147E00120429BB
:1000630075080D7590FFC2922097147F147E0012BD
:1000730004293097FD7F147E00120429750802209D
:1000830096147F147E001204293096FD7F147E009F
:100093001204297508062095147F147E0012042982
:1000A3003095FD7F147E0012042975080A209414EC
:1000B3007F147E001204293094FD7F147E00120405
:1000C3002975080E7590FFC2912097147F147E0046
:1000D3001204293097FD7F147E001204297508034A
:1000E3002096147F147E001204293096FD7F147E1F
:1000F300001204297508072095147F147E0012044A
:10010300293095FD7F147E0012042975080B209475
:10011300147F147E001204293094FD7F147E001294
:10012300042975080F7590FFC2902097147F147EE1
:10013300001204293097FD7F147E001204297508EC
:10014300042096147F147E001204293096FD7F1438
:100153007E001204297508082095147F147E00126E
:1001630004293095FD7F147E0012042975080C20A4
:1001730094147F147E001204293094FD7F147E00B2
:08018300120429750810AF08F1
:01018B002251
:03000000020220D9
:0C022000787FE4F6D8FD758126020267A5
:10018C00BB010CE58229F582E5833AF583E0225028
:10019C0006E92582F8E622BBFE06E92582F8E22272
:0D01AC00E58229F582E5833AF583E493228C
:1001B900EF8DF0A4A8F0CF8CF0A428CE8DF0A42E5A
:0201C900FE2214
:1001CB00BC000BBE0029EF8DF084FFADF022E4CC18
:1001DB00F875F008EF2FFFEE33FEEC33FCEE9DECE1
:1001EB00984005FCEE9DFE0FD5F0E9E4CEFD22ED27
:1001FB00F8F5F0EE8420D21CFEADF075F008EF2F71
:10020B00FFED33FD4007985006D5F0F222C398FD61
:05021B000FD5F0EA22FE
:10022C000202ACE493A3F8E493A34003F68001F23A
:10023C0008DFF48029E493A3F85407240CC8C333D3
:10024C00C4540F4420C8834004F456800146F6DFA2
:10025C00E4800B01020408102040809004DDE47E51
:10026C00019360BCA3FF543F30E509541FFEE49397
:10027C00A360010ECF54C025E060A840B8E493A35E
:10028C00FAE493A3F8E493A3C8C582C8CAC583CA89
:10029C00F0A3C8C582C8CAC583CADFE9DEE780BE41
:0104E100001A
:00000001FF
