:04013C008E088F0991
:10014000E4FBFAAF0374807E00A807088006CEA205
:10015000E713CE13D8F8FFE5085EFEE5095F4E24ED
:10016000FF92B4D2B6C2B60BBB00010AEB64084AD8
:0601700070D1D2B5C2B54A
:010176002266
:040177007D7E7F0307
:10017B00AC07AF057E0012013CAF047480A80708E2
:10018B008002C313D8FCF4F5807F017E0012019F1F
:04019B007580FF224A
:10000300C2B6C2B5E4FDFF12017B7D087F01120178
:100013007B7D427F0212017B1201777D7E7F04127A
:10002300017B7D427F0512017BE4FD7F0612017B8C
:10003300E4FD7F0712017BE4FDFF12017B7D027F5C
:100043000112017B7D427F0212017B1201777D7ECB
:100053007F0412017B7D427F0512017BE4FD7F0655
:1000630012017BE4FD7F0712017BE4FDFF12017B9C
:10007300E4FD7F0112017B7D047F0212017B1201EB
:10008300777D7E7F0412017B7D427F0512017BE435
:10009300FD7F0612017BE4FD7F0712017BE4FDFF78
:1000A30012017BE4FD7F0112017B7D427F0212017D
:1000B3007B1201777D7E7F0412017B7D887F051291
:1000C300017BE4FD7F0612017BE4FD7F0712017BC8
:1000D300E4FDFF12017BE4FD7F0112017B7D427F82
:1000E3000212017B1201777D7E7F0412017B7D0862
:1000F3007F0512017BE4FD7F0612017BE4FD7F0790
:1001030012017BE4FDFF12017BE4FD7F0112017B01
:100113007D427F0212017B1201777D047F0412016D
:100123007B7D427F0512017BE4FD7F0612017BE4A8
:09013300FD7F0712017B020007A9
:10019F00E4FDFCC3ED9FEE6480F8EC648098500F93
:0F01AF00790B7B13DBFED9FC0DBD00010C80E446
:0101BE00221E
:030000000201BF3B
:0C01BF00787FE4F6D8FD7581090200038A
:00000001FF
