:10099E001208F58F2BE52B60F7FD7C007F017E00A2
:0C09AE0012088C7FF47E011209BA80E46C
:10095600E4FDFCC3ED9FEE6480F8EC6480985013D0
:0C096600752902752A0FD52AFDD529FA43
:070972000DBD00010C80E047
:01097900225B
:1008F500E4F52820B1137F14FE12095630B1FD7FAF
:10090500147E0012095675280120B0147F147E004C
:1009150012095630B0FD7F147E0012095675280263
:1009250020B2147F147E0012095630B2FD7F147E6A
:100935000012095675280320B3147F147E0012098E
:100945005630B3FD7F147E00120956752804AF2872
:01095500227F
:10097A00202008003F0006005B004F0066006D0063
:10098A007D0007007F006F0077007C0039005E0061
:03099A0079007170
:10088C00EE705BEF14B4080050549008A475F0039C
:10089C00A4C58325F0C583730208BC0208C00208F6
:1008AC00C40208C80208CC0208D40208DC0208E41E
:1008BC00D2A4800ED2A48012D2A48016D2A4801A04
:1008CC00C2A4D2A3D2A28016C2A4D2A3C2A2800E6A
:1008DC00C2A4C2A3D2A28006C2A4C2A3C2A2ED2506
:0908EC00E02408F808E6F580227A
:0509D500007FE3DFFEDE
:0109DA0022FA
:0409BA00AD07AC06D3
:1009BE00E4FBFAC3EB9DEA9C500C1209D5B2A50BD1
:0609CE00BB00010A80EDF0
:0109D4002200
:03000000020800F3
:0C080000787FE4F6D8FD75812B020847D4
:10080C0002099EE493A3F8E493A34003F68001F25B
:10081C0008DFF48029E493A3F85407240CC8C333ED
:10082C00C4540F4420C8834004F456800146F6DFBC
:10083C00E4800B010204081020408090097AE47EC9
:10084C00019360BCA3FF543F30E509541FFEE493B1
:10085C00A360010ECF54C025E060A840B8E493A378
:10086C00FAE493A3F8E493A3C8C582C8CAC583CAA3
:10087C00F0A3C8C582C8CAC583CADFE9DEE780BE5B
:01099D000059
:00000001FF
