:1001C3001200F88F2BE52B60F7FD7C007F017E008A
:0501D30012008F80EB1B
:10015900E4FDFCC3ED9FEE6480F8EC6480985013D5
:0C016900752902752A0FD52AFDD529FA48
:070175000DBD00010C80E04C
:01017C002260
:1000F800E4F52820B1137F14FE12015930B1FD7FB9
:10010800147E0012015975280120B0147F147E0056
:1001180012015930B0FD7F147E0012015975280272
:1001280020B2147F147E0012015930B2FD7F147E74
:100138000012015975280320B3147F147E001201A0
:100148005930B3FD7F147E00120159752804AF2879
:010158002284
:10017D00202008003F0006005B004F0066006D0068
:10018D007D0007007F006F0077007C0039005E0066
:03019D0079007175
:10008F00EE705BEF14B4080050549000A775F003A6
:10009F00A4C58325F0C583730200BF0200C302000D
:1000AF00C70200CB0200CF0200D70200DF0200E739
:1000BF00D2A4800ED2A48012D2A48016D2A4801A09
:1000CF00C2A4D2A3D2A28016C2A4D2A3C2A2800E6F
:1000DF00C2A4C2A3D2A28006C2A4C2A3C2A2ED250B
:0900EF00E02408F808E6F580227F
:0501D800007FE3DFFEE3
:0101DD0022FF
:0401A100AD07AC06F4
:1001A500E4FBFAED25E0FFEC33FEC3EB9FEA9E503E
:0D01B5000C1201D8B2A50BBB00010A80E6B8
:0101C200221A
:03000000020003F8
:0C000300787FE4F6D8FD75812B02004ADE
:10000F000201C3E493A3F8E493A34003F68001F243
:10001F0008DFF48029E493A3F85407240CC8C333F2
:10002F00C4540F4420C8834004F456800146F6DFC1
:10003F00E4800B010204081020408090017DE47ED3
:10004F00019360BCA3FF543F30E509541FFEE493B6
:10005F00A360010ECF54C025E060A840B8E493A37D
:10006F00FAE493A3F8E493A3C8C582C8CAC583CAA8
:10007F00F0A3C8C582C8CAC583CADFE9DEE780BE60
:0101A000005E
:00000001FF
