:10017100202008003F0006005B004F0066006D0074
:100181007D0007007F006F0077007C0039005E0072
:0301910079007181
:070146007C0012008F7F0115
:10014D00E4FDFCC3ED9FEE6480F8EC6480985013E1
:0C015D0075280275290FD529FDD528FA58
:070169000DBD00010C80E058
:01017000226C
:10008F00EE705BEF14B4080050549000A775F003A6
:10009F00A4C58325F0C583730200BF0200C302000D
:1000AF00C70200CB0200CF0200D70200DF0200E739
:1000BF00D2A4800ED2A48012D2A48016D2A4801A09
:1000CF00C2A4D2A3D2A28016C2A4D2A3C2A2800E6F
:1000DF00C2A4C2A3D2A28006C2A4C2A3C2A2ED250B
:0900EF00E02408F808E6F580227F
:1000F8007D017C007F017E0012008F12014D7D0280
:100108007C000F12008F1F12014D7D037F03120127
:10011800467D047F041201467D057C007F0512019F
:10012800487D067C007F061201487D077C007F071A
:0E0138001201487D087C007F0812014880B249
:03000000020003F8
:0C000300787FE4F6D8FD75812902004AE0
:10000F000200F8E493A3F8E493A34003F68001F20F
:10001F0008DFF48029E493A3F85407240CC8C333F2
:10002F00C4540F4420C8834004F456800146F6DFC1
:10003F00E4800B0102040810204080900171E47EDF
:10004F00019360BCA3FF543F30E509541FFEE493B6
:10005F00A360010ECF54C025E060A840B8E493A37D
:10006F00FAE493A3F8E493A3C8C582C8CAC583CAA8
:10007F00F0A3C8C582C8CAC583CADFE9DEE780BE60
:01019400006A
:00000001FF
