:0409B7000208000032
:03000B000208EDFB
:0B08ED00C0E0C0D075D000C000C00704
:1008F800758CFC758A17C28D0509E5097002050813
:10090800C394F4E5089401402E750800750900E5C4
:100918000D450C700DAFA07801EF08800123D8FDBC
:10092800F5A0E50D6401450C700DAFA07801EF0846
:07093800800103D8FDF5A0CA
:09093F00D007D000D0D0D0E03286
:1009480075A0FE1209A012088C750A008F0BE50B22
:10095800450A60F2E50B6401450A70EA050DE50DEC
:100968007002050CC39402E50C940040D9E4F50C20
:04097800F50D80D227
:1009A0005389F0438901C28DD28C758CFC758A18ED
:0709B000D2A9D2AFC2B922A7
:10088C00E4F50E20B1137F14FE12097C30B1FD7F0C
:10089C00147E0012097C750E0120B0147F147E00AA
:1008AC0012097C30B0FD7F147E0012097C750E029B
:1008BC0020B2147F147E0012097C30B2FD7F147EAE
:1008CC000012097C750E0320B3147F147E001209EC
:1008DC007C30B3FD7F147E0012097C750E04AF0EC4
:0108EC0022E9
:10097C00E4FDFCC3ED9FEE6480F8EC6480985013AA
:0C098C00750F0275100FD510FDD50FFA85
:070998000DBD00010C80E021
:01099F002235
:03000000020800F3
:0C080000787FE4F6D8FD758110020847EF
:10080C00020948E493A3F8E493A34003F68001F2B1
:10081C0008DFF48029E493A3F85407240CC8C333ED
:10082C00C4540F4420C8834004F456800146F6DFBC
:10083C00E4800B01020408102040809009B7E47E8C
:10084C00019360BCA3FF543F30E509541FFEE493B1
:10085C00A360010ECF54C025E060A840B8E493A378
:10086C00FAE493A3F8E493A3C8C582C8CAC583CAA3
:10087C00F0A3C8C582C8CAC583CADFE9DEE780BE5B
:0109BB00003B
:00000001FF
