:10087B0020200020202D20202D20200020203A2079
:05088B00203A202000CE
:0F08A400060D1A0319063B32010B000208000073
:100558001203D3E50DFB7A007518027D017F0112A5
:100568000831E50EFB7A007518027D047F01120838
:1005780031E50FFB7A007518027D077F01120831FB
:10058800E510FB7A007518027D017F02120831E53B
:1005980011FB7A007518027D047F02120831E512FA
:0D05A800FB7A007518027D077F0202083102
:10000E00E513B4020B050AE50A75F0068485F00ABD
:10001E00E513640360030200CF740D250AF806E5AC
:10002E000DD394634003E4F50DE50ED3940C400319
:10003E00750E01E50E64016023E50E6403601DE597
:10004E000E64056017E50E64076011E50E64086026
:10005E000BE50E640A6005E50EB40C09E50FD394AA
:10006E001F4040803BE50E64046011E50E6406609F
:10007E000BE50E64096005E50EB40B09E50FD3948C
:10008E001E4020801BE50EB40219E50D54037009C5
:10009E00E50FD3941D400C8007E50FD3941C40034D
:1000AE00750F01E510D394174003E4F510E511D355
:1000BE00943B4003E4F511E512D3943B4003E4F581
:1000CE0012E5136404600302019A740D250AF816F2
:1000DE00E50DB4FF03750D63E50EC3940150037572
:1000EE000E0CE50E64016023E50E6403601DE50E43
:1000FE0064056017E50E64076011E50E6408600B79
:10010E00E50E640A6005E50EB40C0CE50FC3940110
:10011E005062750F1F805DE50E64046011E50E647C
:10012E0006600BE50E64096005E50EB40B13E50FD2
:10013E00C394015003750F1EE50FD3941E403580F6
:10014E0030E50E6402702DE50D54037013E50FC3F8
:10015E0094015003750F1DE50FD3941D40168011A9
:10016E00E50FC394015003750F1CE50FD3941C408B
:10017E0003750F01E510B4FF03751017E511B4FFF9
:10018E000375113BE512B4FF0375123BE50A7014BB
:10019E00E50CB4010F7BFF7A08797B7D017F01129C
:1001AE0007F0800FE50DFB7A007518027D017F01C7
:1001BE00120831E50AB40114E50CB4010F7BFF7A85
:1001CE0008797B7D047F011207F0800FE50EFB7A24
:1001DE00007518027D047F01120831E50AB402147D
:1001EE00E50CB4010F7BFF7A08797B7D077F011246
:1001FE0007F0800FE50FFB7A007518027D077F016F
:10020E00120831E50AB40314E50CB4010F7BFF7A32
:10021E0008797B7D017F021207F0800FE510FB7AD3
:10022E00007518027D017F02120831E50AB404142C
:10023E00E50CB4010F7BFF7A08797B7D047F0212F7
:10024E0007F0800FE511FB7A007518027D047F021E
:10025E00120831E50AB40512E50CB4010D7BFF7AE4
:10026E0008797B7D077F020207F0E512FB7A0075A5
:0A027E0018027D077F0212083122EA
:10060F0012089012000312028812084E7BFF7A081C
:10061F00797E7D017F011207F07BFF7A0879877D54
:10062F00017F021207F01204EC8F13E513B40114CB
:10063F00E50B7005750B01800BE50BB40106E4F5B6
:10064F000B120288E50B1460080470DA120558804B
:06065F00D512000E80D050
:03000B000206B337
:0906B300C0E0C0D075D000C00702
:1006BC00758CFC758A17C28D0509E5097002050851
:1006CC00C394F4E50894014012750800750900E51F
:0B06DC000C70047F0180027F008F0C77
:0706E700D007D0D0D0E032B3
:05000300C2B5C2B622E7
:0305B50025F0FD31
:1005B800AB07D2B5E4F52E74017E00A82E0880059D
:1005C800C333CE33CED8F9FFEBF582EF558224FF43
:1005D80092B4D2B6C2B6052EE52EB408DAE4F52EEA
:1005E80074017E00A82E088005C333CE33CED8F917
:1005F800FFEDFBEF5B24FF92B4D2B6C2B6052EE541
:070608002EB408DCC2B5228C
:02066500AD07DF
:10066700E4F9430501D2B5FB74017E00A8030880B5
:1006770005C333CE33CED8F9FFEDF582EF5582248B
:10068700FF92B4C2B6D2B60BBB08DDE4FBD2B6C24A
:10069700B630B40D7401A803088002C333D8FC42F6
:0B06A700010BBB08E8C2B5C2B4AF01F4
:0106B2002225
:10028800E4FD7F8E1205B8E50D75F00A84C454F0BC
:10029800FFE50D75F00A84EF7F8C1205B5E50E7544
:1002A800F00A84C454F0FFE50E75F00A84EF7F88E5
:1002B8001205B5E50F75F00A84C454F0FFE50F7513
:1002C800F00A84EF25F0FD7F861205B8E51075F079
:1002D8000A84C454F0FFE51075F00A84EF25F0FD98
:1002E8007F841205B8E51175F00A84C454F0FFE55F
:1002F8001175F00A84EF25F0FD7F821205B8E5122A
:1003080075F00A84C454F0FFE51275F00A84EF25ED
:10031800F0FD7F801205B8E51375F00A84C454F027
:10032800FFE51375F00A84EF25F0FD7F8A1205B802
:070338007D807F8E0205B8F5
:1003D3007F8C120665EFC4540F75F00AA4FEEF5428
:1003E3000F2EF50D7F88120665EFC4540F75F00AC2
:1003F300A4FEEF540F2EF50E7F86120665EFC4544C
:100403000F75F00AA4FEEF540F2EF50F7F8412062A
:1004130065EFC4540F75F00AA4FEEF540F2EF510C8
:100423007F82120665EFC4540F75F00AA4FEEF54E1
:100433000F2EF5117F80120665EFC4540F75F00A75
:10044300A4FEEF540F2EF5127F8A120665EFC454F3
:0C0453000F75F00AA4FEEF540F2EF513F5
:01045F00227A
:0608B400C2A58F80D2A74F
:0808BA007F027EEFDEFEDFFC91
:0108C2002213
:0A08C300C2A61208B4C2A70208BAC8
:100890007F381208C37F0C1208C37F061208C37F7B
:0408A000010208C386
:10081300CFCDCFCECCCE12037E7C007D0A12037ED9
:04082300ED2430FF91
:0A082700D2A61208B4C2A70208BA54
:10086500AE07BE0104ED148006BE0209ED243F4427
:0608750080FF1208C322FF
:0A08CD00AC03120865AF040208270F
:0607F0008B148A15891626
:1007F600120865E4FDAB14AA15A9168D827583004F
:0C08060012033FFF60061208270D80E976
:0108120022C3
:0C0799007F0AEA24FFFDE434FFFC7E0030
:0807A5008E198F1A8C1B8D1CAC
:1007AD007F017E00E4FBEBC3951CE51B6480F874B0
:0E07BD008098500AAC19AD1A12036C0B80E83C
:0107CB00220B
:040831008A168B1781
:10083500120865AA18EAD39400400D120799AC1660
:08084500AD171208131A80ED33
:01084D002288
:1006EE00120865C3EA64809480400B7F2B120827A2
:1006FE008A228B23800E7F2D120827C3E49BF523BD
:10070E00E49AF522AA21EAD39400400D120799AC7F
:09071E0022AD231208131A80ED2C
:0107270022AF
:040728008A268B276B
:10072C00120865AA28EAD3940040297F1012079B6F
:10073C00AC26AD27CFCDCFCECCCE12037EEF540F4F
:10074C00FEC3940AEE5004243080022437FF1208B2
:04075C00271A80D107
:010760002276
:040761008A2B8B2C28
:10076500120865AA2DEAD394004028EA24FFFDE487
:1007750034FFFC7F027E001207A5AC2BAD2CCFCD3C
:10078500CFCECCCE12037EEF54012430FF120827C2
:030795001A80D2F5
:01079800223E
:1004EC00E4F51420B1157F14FE1207CC30B1FD7F5A
:1004FC00147E001207CC751401804E20B0167F14A8
:10050C007E001207CC30B0FD7F147E001207CC7534
:10051C001402803520B2167F147E001207CC30B244
:10052C00FD7F147E001207CC751403801C20B316BB
:10053C007F147E001207CC30B3FD7F147E001207AF
:0B054C00CC7514048003E4F514AF1418
:010557002281
:10084E005389F0438901C28DD28C758CFC758A68F0
:07085E00D2A9D2AFC2B922FA
:1007CC00E4FDFCC3ED9FEE6480F8EC64809850135C
:0C07DC0075150275160FD516FDD515FA1F
:0707E8000DBD00010C80E0D3
:0107EF0022E7
:0300000002046097
:0C046000787FE4F6D8FD75812E0204A719
:10033F00BB010CE58229F582E5833AF583E0225073
:10034F0006E92582F8E622BBFE06E92582F8E222BD
:0D035F00E58229F582E5833AF583E49322D7
:10036C00EF8DF0A4A8F0CF8CF0A428CE8DF0A42EA5
:02037C00FE225F
:10037E00BC000BBE0029EF8DF084FFADF022E4CC63
:10038E00F875F008EF2FFFEE33FEEC33FCEE9DEC2C
:10039E00984005FCEE9DFE0FD5F0E9E4CEFD22ED72
:1003AE00F8F5F0EE8420D21CFEADF075F008EF2FBC
:1003BE00FFED33FD4007985006D5F0F222C398FDAD
:0503CE000FD5F0EA224A
:10046C0002060FE493A3F8E493A34003F68001F291
:10047C0008DFF48029E493A3F85407240CC8C33391
:10048C00C4540F4420C8834004F456800146F6DF60
:10049C00E4800B01020408102040809008A4E47E44
:1004AC00019360BCA3FF543F30E509541FFEE49355
:1004BC00A360010ECF54C025E060A840B8E493A31C
:1004CC00FAE493A3F8E493A3C8C582C8CAC583CA47
:1004DC00F0A3C8C582C8CAC583CADFE9DEE780BEFF
:0108B3000044
:00000001FF
