:090B8B00436C6F636B3A003A0001
:040B94000218000043
:03000B0002097C6B
:10097C00C0E0C0D0758CFC758A67C28D0519E5196D
:10098C0070020518C394E8E5189403402975180003
:10099C00751900051AE51A943C4005751A00051CDA
:1009AC00E51CC3943C4005751C00051BE51BC3945A
:0B09BC00184003751B00D0D0D0E032C3
:10092000120B54120B277BFF7A0B798B7D017F0111
:10093000120AC97BFF7A0B79927D037F02120AC9E2
:100940007BFF7A0B79927D067F02120AC9E51BFBB9
:100950007A00750C027D017F02120B0AE51CFB7AFE
:1009600000750C027D047F02120B0AE51AFB7A0067
:0C097000750C027D077F02120B0A80D17B
:100AA500E4FDFCC3ED9FEE6480F8EC648098501380
:0C0AB50075270275280FD528FDD527FAFB
:070AC1000DBD00010C80E0F7
:010AC800220B
:060B6800C2A58F80D2A798
:080B6E007F027EEFDEFEDFFCDA
:010B7600225C
:0A0B7700C2A6120B68C2A7020B6EA3
:100AEC00CFCDCFCECCCE12083F7C007D0A12083F72
:040AFC00ED2430FFB6
:0A0B0000D2A6120B68C2A7020B6E0A
:100B3E00AE07BE0104ED148006BE0209ED243F444B
:060B4E0080FF120B77226C
:100B54007F38120B777F0C120B777F06120B777F8F
:040B640001020B7708
:0A0B8100AC03120B3EAF04020B00A0
:060AC9008B088A09890A6E
:100ACF00120B3EE4FDAB08AA09A90A8D82758300BB
:0C0ADF00120800FF6006120B000D80E9F9
:010AEB0022E8
:0C0A72007F0AEA24FFFDE434FFFC7E0054
:080A7E008E0D8F0E8C0F8D1000
:100A86007F017E00E4FBEBC39510E50F6480F874EC
:0E0A96008098500AAC0DAD0E12082D0B80E8B2
:010AA400222F
:040B0A008A0A8B0BBD
:100B0E00120B3EAA0CEAD39400400D120A72AC0AE4
:080B1E00AD0B120AEC1A80ED88
:010B260022AC
:1009C700120B3EC3EA64809480400B7F2B120B000E
:1009D7008A168B17800E7F2D120B00C3E49BF51729
:1009E700E49AF516AA15EAD39400400D120A72ACE0
:0909F70016AD17120AEC1A80ED8E
:010A000022D3
:040A01008A1F8B209D
:100A0500120B3EAA21EAD3940040297F10120A74E2
:100A1500AC1FAD20CFCDCFCECCCE12083FEF540FBB
:100A2500FEC3940AEE5004243080022437FF120BD3
:040A3500001A80D152
:010A3900229A
:040A3A008A248B255A
:100A3E00120B3EAA26EAD394004028EA24FFFDE4D6
:100A4E0034FFFC7F027E00120A7EAC24AD25CFCD92
:100A5E00CFCECCCE12083FEF54012430FF120B0044
:030A6E001A80D219
:010A71002262
:100B27005389F0438901C28DD28C758CFC758A6814
:070B3700D2A9D2AFC2B9221E
:030000000208945F
:0C089400787FE4F6D8FD7581280208DBAF
:10080000BB010CE58229F582E5833AF583E02250AD
:1008100006E92582F8E622BBFE06E92582F8E222F7
:0D082000E58229F582E5833AF583E4932211
:10082D00EF8DF0A4A8F0CF8CF0A428CE8DF0A42EDF
:02083D00FE2299
:10083F00BC000BBE0029EF8DF084FFADF022E4CC9D
:10084F00F875F008EF2FFFEE33FEEC33FCEE9DEC66
:10085F00984005FCEE9DFE0FD5F0E9E4CEFD22EDAC
:10086F00F8F5F0EE8420D21CFEADF075F008EF2FF6
:10087F00FFED33FD4007985006D5F0F222C398FDE7
:05088F000FD5F0EA2284
:1008A000020920E493A3F8E493A34003F68001F245
:1008B00008DFF48029E493A3F85407240CC8C33359
:1008C000C4540F4420C8834004F456800146F6DF28
:1008D000E4800B0102040810204080900B94E47E19
:1008E000019360BCA3FF543F30E509541FFEE4931D
:1008F000A360010ECF54C025E060A840B8E493A3E4
:10090000FAE493A3F8E493A3C8C582C8CAC583CA0E
:10091000F0A3C8C582C8CAC583CADFE9DEE780BEC6
:010B9800005C
:00000001FF
