:100003007D017C007F017E001201227F017E0012B0
:10001300018B7D027C007F027E001201227F017E24
:100023000012018B7D037C007F037E001201227F7F
:10003300017E0012018B7D047C007F047E0012018F
:10004300227F017E0012018B7D057C007F057E00EF
:100053001201227F017E0012018B7D067C007F0648
:100063007E001201227F017E0012018B7D077C003E
:100073007F077E001201227F017E0012018B7D0823
:100083007C007F087E001201227F017E0012018B1B
:0300930002000365
:10018B00E4FDFCC3ED9FEE6480F8EC6480985013A3
:0C019B0075280275290FD529FDD528FA1A
:0701A7000DBD00010C80E01A
:0101AE00222E
:1001AF00202008003F0006005B004F0066006D0036
:1001BF007D0007007F006F0077007C0039005E0034
:0301CF0079007143
:10012200EE705BEF14B40800505490013A75F0037E
:10013200A4C58325F0C58373020152020156020150
:100142005A02015E02016202016A02017202017A2E
:10015200D2A4800ED2A48012D2A48016D2A4801A75
:10016200C2A4D2A3D2A28016C2A4D2A3C2A2800EDB
:10017200C2A4C2A3D2A28006C2A4C2A3C2A2ED2577
:09018200E02408F808E6F58022EB
:0300000002009665
:0C009600787FE4F6D8FD7581290200DDBA
:1000A200020003E493A3F8E493A34003F68001F271
:1000B20008DFF48029E493A3F85407240CC8C3335F
:1000C200C4540F4420C8834004F456800146F6DF2E
:1000D200E4800B01020408102040809001AFE47E0E
:1000E200019360BCA3FF543F30E509541FFEE49323
:1000F200A360010ECF54C025E060A840B8E493A3EA
:10010200FAE493A3F8E493A3C8C582C8CAC583CA14
:10011200F0A3C8C582C8CAC583CADFE9DEE780BECC
:0101D200002C
:00000001FF
