:0401100002080000E1
:1000CA00758901E4F508F509758C4C758A06D28C98
:1000DA00308DFDC28CC28D0509E5097002050864E0
:0600EA0014450870E3223A
:10008F0075A0FFC2A01200CAD2A0C2A11200CAD28C
:10009F00A1C2A21200CAD2A2C2A31200CAD2A3C284
:1000AF00A41200CAD2A4C2A51200CAD2A5C2A61217
:0B00BF0000CAD2A6C2A71200CA80C56A
:1000F000E4FDFCC3ED9FEE6480F8EC648098500F43
:0F010000790B7BBEDBFED9FC0DBD00010C80E44A
:01010F0022CD
:03000000020003F8
:0C000300787FE4F6D8FD75810902004A00
:10000F0002008FE493A3F8E493A34003F68001F278
:10001F0008DFF48029E493A3F85407240CC8C333F2
:10002F00C4540F4420C8834004F456800146F6DFC1
:10003F00E4800B0102040810204080900110E47E40
:10004F00019360BCA3FF543F30E509541FFEE493B6
:10005F00A360010ECF54C025E060A840B8E493A37D
:10006F00FAE493A3F8E493A3C8C582C8CAC583CAA8
:10007F00F0A3C8C582C8CAC583CADFE9DEE780BE60
:0101140000EA
:00000001FF
