:030000000208DB18
:0C08DB00787FE4F6D8FD75810C0209223C
:0309B700010C0030
:0609B10075985002099B3D
:03002300020800D0
:10080000C0E0C0F0C083C082C0D075D000C000C0BE
:1008100001C002C003C004C005C006C00720980381
:100820000208C0C29885990CE50C24CFB40800409A
:10083000030208C090084275F003A4C58325F0C5E3
:10084000837302085A0208670208740208810208CA
:100850008E02089B0208A80208B5C2A07FF47E01A0
:10086000120967D2A08059C2A17FF47E01120967E4
:10087000D2A1804CC2A27FF47E01120967D2A2806D
:100880003FC2A37FF47E01120967D2A38032C2A4C3
:100890007FF47E01120967D2A48025C2A57FF47E71
:1008A00001120967D2A58018C2A67FF47E01120941
:1008B00067D2A6800BC2A77FF47E01120967D2A778
:1008C000D007D006D005D004D003D002D001D0008C
:0B08D000D0D0D082D083D0F0D0E03236
:0809A9008F993099FDC29922DB
:10098B001209B1D2ACD2AF7FF47E0112096780F7A6
:10096700E4FDFCC3ED9FEE6480F8EC6480985013BF
:0C097700750A02750B0FD50BFDD50AFAAE
:070983000DBD00010C80E036
:01098A00224A
:0E099B00438920758DFD758BFDD28ED29C2276
:1008E70002098BE493A3F8E493A34003F68001F293
:1008F70008DFF48029E493A3F85407240CC8C33312
:10090700C4540F4420C8834004F456800146F6DFE0
:10091700E4800B01020408102040809009B7E47EB0
:10092700019360BCA3FF543F30E509541FFEE493D5
:10093700A360010ECF54C025E060A840B8E493A39C
:10094700FAE493A3F8E493A3C8C582C8CAC583CAC7
:10095700F0A3C8C582C8CAC583CADFE9DEE780BE7F
:0109BA00003C
:00000001FF
